:020000040800F2
:10000000000002201D0300086D0300086D030008B6
:100010006D0300086D0300086D0300080000000078
:100020000000000000000000000000006D03000858
:100030006D030008000000006D0300086D03000858
:100040006D0300086D0300086D0300086D030008D0
:100050006D0300086D0300086D0300086D030008C0
:100060006D0300086D0300086D0300086D030008B0
:100070006D0300086D0300086D0300086D030008A0
:100080006D0300086D0300086D0300086D03000890
:100090006D0300086D0300086D0300086D03000880
:1000A0006D0300086D0300086D0300086D03000870
:1000B0006D0300086D0300086D0300086D03000860
:1000C0006D0300086D0300086D0300086D03000850
:1000D0006D0300086D0300086D0300086D03000840
:1000E0006D0300086D0300086D0300086D03000830
:1000F0006D0300086D0300086D0300086D03000820
:100100006D0300086D0300086D0300086D0300080F
:100110006D0300086D0300086D0300086D030008FF
:100120006D0300086D0300086D0300086D030008EF
:100130006D0300086D0300086D0300086D030008DF
:100140006D0300086D0300086D0300086D030008CF
:100150006D0300086D0300086D0300086D030008BF
:100160006D0300086D0300086D0300086D030008AF
:100170006D0300086D0300086D0300080000000017
:080180006D0300086D03000887
:1001880010B5054C237833B9044B13B10448AFF3C9
:1001980000800123237010BD3C04002000000000F3
:1001A8004806000808B5034B1BB103490348AFF3E1
:1001B800008008BD00000000400400204806000838
:1001C800A3F5803A704700BF174B002B08BF134BAD
:1001D8009D46FFF7F5FF00218B460F461348144A4A
:1001E800121A00F0F5F80E4B002B00D098470D4B73
:1001F800002B00D098470020002104000D000D4876
:10020800002802D00C4800F0A5F900F0BDF8200045
:10021800290000F063F800F0A7F800BF000008000C
:100228000000000000000000000000003C04002066
:100238007C0400205D05000869050008054BD3F81B
:1002480088204FF0006142F47002C3F8882099605A
:10025800704700BF00ED00E0164A936803F00C03F6
:10026800042B0CD0082B0CD0134B124A134892685D
:100278001349C2F30312825CD3400B607047114BE1
:10028800F3E75368516813F4800F01F03F01536896
:1002980014BF0C4A084AB2FBF1F1064A5268C2F38D
:1002A8000142C3F38813013201FB03F35200B3FB8D
:1002B800F2F3DAE7003802400024F4008806000868
:1002C8000400002040787D01DC06000800000020C2
:1002D8003C0400203C0400207C0400200A4A0B490E
:1002E800136B43F0080313630B6843F080430B6000
:1002F8000B6823F000430B604A69054B82F4004207
:100308004A61013BFDD1F7E700380240000C02408A
:1003180020A10700DFF834D0002103E00C4B5B5824
:10032800435004310B480C4B42189A42F6D30B4AFF
:1003380002E0002342F8043B094B9A42F9D3FFF745
:100348007DFF00F021F8FFF7C9FF70470000022089
:10035800DC060008000000203C0400203C040020CB
:100368007C040020FEE7000008B50021044600F0E8
:100378008BF8044B1868C36B03B19847204600F00C
:100388006DF900BFC406000870B50D4E0D4D761B03
:10039800B61006D0002455F8043B01349847A6420D
:1003A800F9D1094E094D761B00F04CF9B61006D06C
:1003B800002455F8043B01349847A642F9D170BD92
:1003C800D0060008D0060008D8060008D0060008A5
:1003D800830730B548D0541E002A3FD0CAB203461E
:1003E80001E0013C3AD303F8012B9D07F9D1032C16
:1003F8002DD9CDB245EA05250F2C45EA054536D954
:10040800A4F1100222F00F0C03F1200EE6444FEA8B
:10041800121C03F1100242E9045542E90255103258
:100428007245F8D10CF1010214F00C0F03EB021223
:1004380004F00F0C13D0ACF1040323F003030433CE
:10044800134442F8045B9342FBD10CF003042CB133
:10045800CAB21C4403F8012B9C42FBD130BD644650
:100468001346002CF4D1F9E703461446BFE71A46B1
:10047800A446E0E7024B13B1024800F06BB870479E
:1004880000000000690500082DE9F84F2F4B2DEDFD
:10049800028B834618680F4600F082F82C4BD3F87D
:1004A8000080D8F84861AEB108EE10BA4FF00109E3
:1004B8004FF0000A7468651E0CD4013406EB8404FE
:1004C80087B1D4F80031BB420CD0013D6B1CA4F1BC
:1004D8000404F5D1BDEC028B1C4B1868BDE8F84F3D
:1004E80000F066B873682268013BAB420CBF7560C8
:1004F800C4F800A0002AE8D0D6F88801D6F804B0DD
:1005080009FA05F101420BD1904772685A4513D197
:10051800D8F84831B342D8D01E46002ECAD1D9E700
:10052800D6F88C0101420CD1D4F8801018EE100ACC
:10053800904772685A45EBD0D8F84861002EB9D177
:10054800C8E7D4F880009047DFE700BF38040020F0
:10055800C4060008002301461A46184600F02AB8C7
:1005680038B5084B084D5B1B9C1007D0043B1D4455
:10057800013C55F804399847002CF9D1BDE83840BA
:1005880000F066B8DC060008D8060008704700BF0F
:10059800704700BF704700BF704700BF704700BF7B
:1005A800704700BF0120704701207047704700BFA7
:1005B800704700BF2DE9F047DFF880A00646DAF85B
:1005C800000098460F469146FFF7EAFF1A4B1B6852
:1005D800D3F8484124B365681F2D26DC5EB96B1C2F
:1005E8000235DAF80000636044F82570FFF7E0FF91
:1005F8000020BDE8F08704EB85010123C1F888904D
:10060800D4F88821AB401A43022EC4F88821C1F8D7
:100618000881E4D1D4F88C211343C4F88C31DEE787
:1006280003F5A674C3F84841D5E7DAF80000FFF7E8
:10063800BFFF4FF0FF30DCE7C40600083804002095
:1006480000000000F8B500BFF8BC08BC9E46704723
:0C065800F8B500BFF8BC08BC9E46704717
:100664003A3D0A3D0F3D243D323D023D053D133DDB
:100674000D3D0C3D233D113D263D013D173D083DFB
:10068400093D000000000000000000000102030416
:100694000607080900000000010203043A3D0A3D70
:1006A4000F3D243D323D023D053D133D0D3D0C3DC6
:1006B400233D113D263D013D173D083D093D000008
:0406C4001000002002
:0806C80000FBFF7F01000000B0
:0806D0007D040008AD010008E3
:0406D800890100088C
:1006DC00000000000024F4001000002000000000C6
:1006EC0000000000FC02002064030020CC0300206A
:1006FC0000000000000000000000000000000000EE
:10070C0000000000000000000000000000000000DD
:10071C0000000000000000000000000000000000CD
:10072C0000000000000000000000000000000000BD
:10073C0000000000000000000000000000000000AD
:10074C00000000000000000000000000000000009D
:10075C00000000000000000000000000000000008D
:10076C00000000000000000000000000000000007D
:10077C00000000000000000000000000000000006D
:10078C00000000000000000001000000000000005C
:10079C000E33CDAB34126DE6ECDE05000B00000021
:1007AC00000000000000000000000000000000003D
:1007BC00000000000000000000000000000000002D
:1007CC00000000000000000000000000000000001D
:1007DC00000000000000000000000000000000000D
:0C0B0C0000000000000000006004002059
:040000050800031DCF
:00000001FF
